:020000040000FA
:0400000081315229CF
:100008007E1480312E000F1C5029843194248031B5
:10001800F2007208F400172980307406031D1728AF
:1000280020000F16272920000F1227298030740678
:10003800031D22282000C001C00A27292000C00172
:10004800272980307406031D2C28F801F80A27296F
:10005800F801272980307406031D3C282000CC01B4
:10006800CD01CE016030F2007208CF00D001B02877
:100078002000CC01CD01CE01203037287508F200D0
:10008800F3017308003A03194A2827297208223A0B
:1000980003192528103A03192E28703A0319102835
:1000A800803A03191A28303A0319272927292729BA
:1000B8007508F200F3017308003A03196428272928
:1000C8007208423A03195B28B03A031927292729ED
:1000D800780803197D28FF30F20072082000CC0050
:1000E800FF30F2007208CD00C030F2007208CE0076
:1000F80081282000CC01CD01CE01CF01D0015A309A
:10010800E8286C284A308231852280317408F20050
:100118007208F500272986282000CC01CD01CE01E0
:10012800CF01D428C030F20072082000CC00403043
:10013800F2007208CD0078080319A7288030F20071
:100148007208CE00A828CE014030F2007208CF0015
:100158008030F2007208D000D10127292000CC019C
:10016800CD018030F2007208CE008030F2007208B3
:10017800CF008030F2007208D0005030E82820000C
:10018800CC01CD014030F2007208CE00CF01AC287E
:100198002000CC01CD01CE012030F2007208CF0042
:1001A800D001D1018A282000CC01CD01CD0AFF3031
:1001B800F2007208CE00FF30F2007208CF00FF3064
:1001C800F2007208D000FF30F2007208D10027292F
:1001D8007408F200F3017308003A0319F428272978
:1001E8007208023A03196C28103A03198528303A24
:1001F80003199028103A0319CC28703A0319862855
:10020800203A0319B228C03A03199628103A03195C
:10021800D728703A03198F28203A0319C328103AAF
:1002280003197D2827297608F200F3017308003A9C
:1002380003191F29EC287208033A03194228073AC0
:1002480003195C28EC282000400803192D29CF3019
:1002580033297808031932299E3033298230F20075
:100268007208CA0076084A3E860087010108843170
:100278008F24803120004208760203184729013074
:10028800F2007208F6070C12003200320032003217
:1002980020000C162E000F107E1009008131542901
:1002A80084319D248131F80084319E248131F90004
:1002B8003E3084008430850042308600003087005C
:1002C8001C30843183248131F501F601F701203097
:1002D8008400003085002230843189248131A030A7
:1002E8008400003085002030843189247E1020006D
:1002F8008331642B2000E00000308C1B0130A90002
:1003080000300C1B0130AB0000300D180130A80084
:1003180000308D180130AA0000300F180130AD00F0
:1003280000300E190130AE0000300D1B0130AC005A
:1003380000308D1B0130AF0000300C180130A000D8
:1003480000308C190130A20000300C190130A100D6
:1003580000308C180130A30000300D1A0130A400C1
:1003680000308D1A0130A60000300D190130A500AB
:1003780000308D190130A700083077020318F70103
:100388007708283E860087010108031DD32901301C
:10039800DE007708A83E860087015E088107770897
:1003A800203E860087010108031DE2290130DE0096
:1003B8007708A03E860087015E0881077708B83E67
:1003C800860087017708283E840085010008010619
:1003D8000319062A7708A83E8600870181010130A3
:1003E800DE00770AF829DE35890BF7295E08DF0079
:1003F8005F08F90460080319062A7708383E860062
:10040800870181017708B03E860087017708203E82
:10041800840085010008010603192A2A7708A03EEE
:100428008600870181010130DE00770A1C2ADE354B
:10043800890B1B2A5E08DF005F08C90460080319DE
:100448002A2A7708303E8600870181017708A83E6E
:100458008600870103300102031C492A0130DE00AF
:10046800770A372ADE35890B362A5E08FF3ADF001D
:100478005F08F90560080319492AFF30DE0077088C
:10048800383E860087015E0881007708A03E860016
:10049800870103300102031C682A0130DE00770A55
:1004A800562ADE35890B552A5E08FF3ADF005F08B9
:1004B800C90560080319682AFF30DE007708303E56
:1004C800860087015E0881007708283E860087013C
:1004D8000108DE007708B83E860087015E088100C3
:1004E8007708203E860087010108DE007708B03EC5
:1004F800860087015E0881000130DE005E08F7078C
:100508000800F1000530F00070082000C2007908EA
:10051800F0007108023E86008701700881004908D2
:10052800F0007108033E86008701700881004808C2
:10053800F0007108043E86008701700881004708B2
:10054800F0007108053E86008701700881004608A2
:10055800F0007108063E8600870170088100450892
:10056800F0007108073E860087017008810078084E
:10057800031908001430F0007008C2003A08F000AF
:100588007108083E86008701700881003808F0006D
:100598007108093E86008701700881003B08F00059
:1005A80071080A3E86008701700881003908F0004A
:1005B80071080B3E86008701700881003308F0003F
:1005C80071080C3E86008701700881003208F0002F
:1005D80071080D3E86008701700881003108F0001F
:1005E80071080E3E86008701700881003008F0000F
:1005F80071080F3E86008701700881003508F000F9
:100608007108103E86008701700881003408F000E8
:100618007108113E86008701700881003708F000D4
:100628007108123E86008701700881003608F000C4
:100638007108133E86008701700881000800113098
:100648002000DE000030DF008431152483312000D3
:100658005E088331DE2383312000E7006708C50088
:100668001030DE000030DF00843115248331200093
:100678005E088331DE2383312000E7006708C60067
:100688001730DE000030DF0084311524833120006C
:100698005E088331DE2383312000E7006708C70046
:1006A8001630DE000030DF0084311524833120004D
:1006B8005E088331DE232000E7006708C8000800D1
:1006C8008331A423833184316A2483315A30200052
:1006D800E8006808CB00E901EA010C1620008D1B30
:1006E8008D1D7B2B0D1D7B2B84319F248331003086
:1006F80020008C1A0130EB006B080319872B01309E
:10070800E8006808EA076B086906031DEA016B0838
:10071800E8006808E90003306A02031C9C2BF60114
:100728000930E8006808C200FF3023008C00F5019A
:10073800780881317E218331833123238331722BE1
:10074800FF3020009100FF309200FF309300EF301F
:100758009400FF3095003E00B801C301C330CE00BD
:10076800D901E401CF30B900FF30C4000430CF0014
:100778000130DA00E5012000DE011030E2006208F5
:10078800DF004030E3006308E000243084315A245D
:10079800833120009312111284317C248331153067
:1007A8003E00A500843174248B170B172E000F1000
:1007B800191408002000E10061080F39DE00043038
:1007C800DE35890BE42B6108DF000430DF36890B46
:1007D800EA2B5F080F395E04E0006008E100610859
:1007E8003339DE000230DE35890BF72B6108DF0074
:1007F8000230DF36890BFD2B5F0833395E04E000D9
:100808006008E10061085539DE000130DE35890BEA
:100818000A2C613655395E04DF005F08E100610883
:10082800080020005E0821009E009C013F309D00CA
:10083800131413181D2C0C082000E0000230E036B9
:10084800890B232C6008E100E20121000D0820003B
:10085800E300E4010630E335E40D890B2F2C610831
:100868006304E50062086404E6006508DE006608C3
:10087800DF0008000934FF340334FE34FE34FE344C
:10088800FE34FF349E345A340034003400340034CB
:1008980000340034003400340034003400340034B0
:1008A8000034003400340034003400342000E10007
:1008B800611D602C6008622C5E08600423008F00B4
:1008C800200061085F042300900008000430210024
:1008D8009300940195019A013F30980093170800FE
:1008E80055303D008F00AA308F0001308F0008007E
:1008F80055303D008F00AA308F008F010800FE00A0
:1009080012001E00FE0B842C0034640080010131AB
:10091800890B8A2C0034F000700823008C00080032
:100928008431992423000C08080023000F180800BC
:08093800992C0134FF34080082
:020000040001F9
:0A000E008C3FFE379F3FFF3FFF3F8E
:00000001FF
