:020000040000FA
:10000000813152290134F7347E1480312E000F1CC7
:1000100050298F3111278031F2007208F40017291E
:1000200080307406031D172820000F162729200092
:100030000F12272980307406031D22282000ED01AD
:10004000ED0A27292000ED01272980307406031DC1
:100050002C28F801F80A2729F8012729803074068E
:10006000031D3C282000DB01DC01DD016030F200D3
:100070007208DE00DF01B0282000DB01DC01DD01B9
:10008000203037287508F200F3017308003A03198D
:100090004A2827297208223A03192528103A0319F9
:1000A0002E28703A03191028803A03191A28303A7A
:1000B00003192729272927297508F200F301730856
:1000C000003A0319642827297208423A03195B2869
:1000D000B03A031927292729780803197D28FF300A
:1000E000F20072082000DB00FF30F2007208DC0032
:1000F000C030F2007208DD0081282000DB01DC0145
:10010000DD01DE01DF015A30E8286C2859308531E5
:10011000D62580317408F2007208F5002729862858
:100120002000DB01DC01DD01DE01D428C030F2005B
:1001300072082000DB004030F2007208DC00780812
:100140000319A7288030F2007208DD00A828DD011D
:100150004030F2007208DE008030F2007208DF00EA
:10016000E00127292000DB01DC018030F200720869
:10017000DD008030F2007208DE008030F20072088C
:10018000DF005030E8282000DB01DC014030F200C5
:100190007208DD00DE01AC282000DB01DC01DD019E
:1001A0002030F2007208DE00DF01E0018A28200022
:1001B000DB01DC01DC0AFF30F2007208DD00FF30F9
:1001C000F2007208DE00FF30F2007208DF00FF303C
:1001D000F2007208E00027297408F200F3017308A6
:1001E000003A0319F42827297208023A03196C28E7
:1001F000103A03198528303A03199028103A031948
:10020000CC28703A03198628203A0319B228C03A3C
:1002100003199628103A0319D728703A03198F2822
:10022000203A0319C328103A03197D282729760894
:10023000F200F3017308003A03191F29EC28720831
:10024000033A03194228073A03195C28EC282000D6
:100250006D0803192D29CF30332978080319322965
:100260009E3033298230F2007208D9007608593E58
:100270008600870101088F31162780312000500841
:100280007602031847290130F2007208F6070C12B3
:10029000003200320032003220000C162E000F1007
:1002A0007E10090081315429803102208131F8000B
:1002B000803103208131F900783084008F3085004F
:1002C00050308600003087000030FF001D308F3135
:1002D00040278131F0308400233085000030FE005B
:1002E0000430FF008F3134278131F501F601F70129
:1002F000ED01EE01A0308400003085004030FE00AA
:100300000030FF008F3134277E1020008731302FDE
:1003100060308731E72781312000B9003908C200F9
:1003200061308731E72781312000B9003908C300E7
:1003300062308731E72781312000B9003908C400D5
:1003400063308731E72781312000B9003908C500C3
:1003500064308731E72781312000B9003908C600B1
:1003600065308731E72781312000B9003908C7009F
:1003700066308731E72781312000B9003908C8008D
:1003800067308731E72781312000B9003908C9007B
:10039000CA01CB0120004B08803AB90080303902F5
:1003A000031DD42942084A020318E329F030200033
:1003B000B9002630BA004A08390786004B083A3D92
:1003C000870081012D2A20004B08803A803C031DC4
:1003D000EB294A0843020318FE29F0302000B90037
:1003E0002630BA004A083907BB004B083A3DBC002A
:1003F0003B0886003C088700FF302C2A20004B0871
:10040000B0004A08AF004208B900BA013908B1008B
:100410003A08B2004308BB00BC013B08B3003C08EB
:10042000B4000030B500B600FF30B7000030B800AF
:100430008F31B62781312000BD00F030BE0026305C
:10044000BF004A083E07C0004B083F3DC1004008BE
:100450008600410887003D0881004B08803AB900BA
:1004600080303902031D362A44084A020318452AFF
:10047000F0302000B9002530BA004A08390786005C
:100480004B083A3D870081018F2A20004B08803AB3
:10049000803C031D4D2A4A0845020318602AF030AB
:1004A0002000B9002530BA004A083907BB004B08C4
:1004B0003A3DBC003B0886003C088700FF308E2A8E
:1004C00020004B08B0004A08AF004408B900BA0148
:1004D0003908B1003A08B2004508BB00BC013B082E
:1004E000B3003C08B4000030B500B600FF30B700E0
:1004F0000030B8008F31B62781312000BD00F030C8
:10050000BE002530BF004A083E07C0004B083F3DF3
:10051000C10040088600410887003D0881004B0863
:10052000803AB90080303902031D982A46084A02F1
:100530000318A72AF0302000B9002430BA004A0876
:10054000390786004B083A3D87008101F12A2000D7
:100550004B08803A803C031DAF2A4A084702031823
:10056000C22AF0302000B9002430BA004A08390706
:10057000BB004B083A3DBC003B0886003C088700A6
:10058000FF30F02A20004B08B0004A08AF004608B0
:10059000B900BA013908B1003A08B2004708BB00F7
:1005A000BC013B08B3003C08B4000030B500B60005
:1005B000FF30B7000030B8008F31B62781312000FE
:1005C000BD00F030BE002430BF004A083E07C00026
:1005D0004B083F3DC10040088600410887003D08A8
:1005E00081004B08803AB90080303902031DFA2A95
:1005F00048084A020318092BF0302000B9002330C4
:10060000BA004A08390786004B083A3D8700810145
:10061000532B20004B08803A803C031D112B4A08C5
:1006200049020318242BF0302000B9002330BA000F
:100630004A083907BB004B083A3DBC003B0886001E
:100640003C088700FF30522B20004B08B0004A08BE
:10065000AF004808B900BA013908B1003A08B20041
:100660004908BB00BC013B08B3003C08B4000030A3
:10067000B500B600FF30B7000030B8008F31B627A4
:1006800081312000BD00F030BE002330BF004A0899
:100690003E07C0004B083F3DC100400886004108AE
:1006A00087003D0881000130CA070030CB3D4B0870
:1006B000803AB90081303902031D602B00304A02B4
:1006C00003180800CA298B130B1310302000A00058
:1006D0000030A1008F31D727833120002008A900E6
:1006E0002908AA001030A0000030A1008F31D727C0
:1006F000833120002008A9002908AB001130A00098
:100700000030A1008F31D727833120002008A900B5
:100710002908AC001130A0000030A1008F31D7278C
:10072000833120002008A9002908AD001630A00060
:100730000030A1008F31D727833120002008A90085
:100740002908AE001630A0000030A1008F31D72755
:10075000833120002008A9002908AF001730A0002D
:100760000030A1008F31D727833120002008A90055
:100770002908B0001730A0000030A1008F31D72722
:10078000833120002008A9002908B1003F2C7F30C8
:100790005806031DCF2BCF3057060319602C10309D
:1007A000A0000030A1008F31D7278331200020081E
:1007B000A9002908B2001130A0000030A1008F313B
:1007C000D727833120002008A9002908B30016305C
:1007D000A0000030A1008F31D727833120002008EE
:1007E000A9002908B4001730A0000030A1008F3103
:1007F000D727833120002008A9002908B500330835
:100800002D020318072C3308A9002908AD002C0875
:10081000330203180F2C3308A9002908AC00320852
:100820002B020318172C3208A9002908AB002A084C
:10083000320203181F2C3208A9002908AA00350823
:1008400031020318272C3508A9002908B100300807
:10085000350203182F2C3508A9002908B0003408E8
:100860002F020318372C3408A9002908AF002E08DE
:10087000340203183F2C3408A9002908AE000030C8
:100880008431A92483316F3020005806031DC72B03
:100890003F305706031DC72BAA01FF30A9002908C6
:1008A000AB00AC01FF30A9002908AD00AE01FF305C
:1008B000A9002908AF00B001FF30A9002908B10044
:1008C0002A08A9002908A00060308F3195278331BC
:1008D00020002B08A9002908A00061308F3195273E
:1008E000833120002C08A9002908A00062308F3134
:1008F0009527833120002D08A9002908A000633026
:100900008F319527833120002E08A9002908A000E7
:1009100064308F319527833120002F08A9002908E2
:10092000A00065308F319527833120003008A90061
:100930002908A00066308F319527833120003108C7
:10094000A9002908A00067308F3195278B170B1756
:1009500008002000A20000308C1B01302100C900DB
:10096000003020000C1B01302100CB0000302000A3
:100970000D1801302100C800003020008D18013012
:100980002100CA00003020000F1801302100CD00E6
:10099000003020000E1901302100CE000030200070
:1009A0000D1B01302100CC00003020008D1B0130D8
:1009B0002100CF00003020000C1801302100C000C1
:1009C000003020008C1901302100C20000302000CE
:1009D0000C1901302100C100003020008C180130BA
:1009E0002100C300003020000D1A01302100C40096
:1009F000003020008D1A01302100C6000030200098
:100A00000D1901302100C500003020008D19013082
:100A10002100C700083077020318F7017708C83EA5
:100A2000860087010108031D1E2D01302000A00053
:100A30007708A83E86008701200881077708C03E16
:100A4000860087010108031D2E2D01302000A00023
:100A50007708A03E86008701200881077708B83E06
:100A6000860087017708C83E8400850100080106DA
:100A70000319532D7708A83E8600870181010130B4
:100A80002000A000770A452DA035890B442D2008B1
:100A9000A1002108D80422080319532D7708D83E55
:100AA0008600870181017708B03E860087017708BC
:100AB000C03E84008501000801060319782D7708DF
:100AC000A03E86008701810101302000A000770A46
:100AD0006A2DA035890B692D2008A1002108D704B3
:100AE00022080319782D7708D03E860087018101FE
:100AF0007708A83E8600870103300102031C982D69
:100B000001302000A000770A862DA035890B852DA5
:100B10002008FF3AA1002108D80522080319982DC2
:100B2000FF30A0007708D83E8600870120088100AA
:100B30007708A03E8600870103300102031CB82D10
:100B400001302000A000770AA62DA035890BA52D25
:100B50002008FF3AA1002108D70522080319B82D63
:100B6000FF30A0007708D03E860087012008810072
:100B70007708C83E8600870101082000A00077089A
:100B8000B83E86008701200881007708C03E8600B5
:100B900087010108A0007708B03E86008701200881
:100BA00081000130A0002008F7070800F10005309F
:100BB000F00070082000D0005808F0007108023ED4
:100BC00086008701700881005708F0007108033E15
:100BD00086008701700881007908F0007108043EE2
:100BE00086008701700881005608F0007108053EF4
:100BF00086008701700881005508F0007108063EE4
:100C000086008701700881005408F0007108073ED3
:100C100086008701700881007808031908001430E5
:100C2000F0007008D00021005A08F0007108083E5A
:100C300086008701700881005808F0007108093E9D
:100C400086008701700881005B08F00071080A3E89
:100C500086008701700881005908F00071080B3E7A
:100C600086008701700881005308F00071080C3E6F
:100C700086008701700881005208F00071080D3E5F
:100C800086008701700881005108F00071080E3E4F
:100C900086008701700881005008F00071080F3E3F
:100CA00086008701700881005508F0007108103E29
:100CB00086008701700881005408F0007108113E19
:100CC00086008701700881005708F0007108123E05
:100CD00086008701700881005608F0007108133EF5
:100CE0008600870170088100080010302000A000F5
:100CF0000030A1008F31D7278631F0302000A900C5
:100D00002630AA0020082907860021082A3D8700EE
:100D100001088731B02786312000AB002B08D500B1
:100D20001130A0000030A1008F31D7278631F0307C
:100D30002000A9002530AA002008290786002108E4
:100D40002A3D870001088731B02786312000AB009B
:100D50002B08D4001630A0000030A1008F31D72717
:100D60008631F0302000A9002430AA00200829078D
:100D7000860021082A3D870001088731B027863187
:100D80002000AB002B08F9001730A0000030A100B4
:100D90008F31D7278631F0302000A9002330AA00F8
:100DA00020082907860021082A3D8700010887318D
:100DB000B0272000AB002B08D60008002000AC01B3
:100DC000A71FE92EA609A709A60A0319A70AAC01BD
:100DD000AC0AA91FF42EA809A909A80A0319A90A8F
:100DE0000130AA002A08AC06AD01AE01260827048E
:100DF0000319232FAB01AB0AA71B082F0130A6351F
:100E0000A70D890BFF2E0130AA002A08AB07FC2E84
:100E10000130AD35AE0D890B092F27082902031DBE
:100E2000132F26082802031C1A2F2608A8022708B9
:100E3000A93B2D140130A736A60C890B1B2F0130BE
:100E4000AB02031D082F2C0803192B2FAD09AE0987
:100E5000AD0A0319AE0A2E08A7002D08A600080047
:100E60008731762787318F312A2787318131882151
:100E700087315A302000CC004C08DA00CD01CE0179
:100E80000C167F3020005806031D4D2F5F3057068B
:100E9000031D4D2F833163238731003020008C1ACE
:100EA0000130CF004F080319592F0130CC004C08F6
:100EB000CE074F084D06031DCE014F08CC004C084D
:100EC000CD0003304E02031C6E2FF6010930CC001A
:100ED0004C08D000FF3023008C00F50178088431E5
:100EE000A9248731863175268731412FFF302000B4
:100EF0009100FF309200FF309300EF309400FF30FC
:100F000095003E00B801C301C330CE00D901E40111
:100F1000CF30B900FF30C4000430CF000130DA0018
:100F2000E5012000A0011030A4002408A1004030F9
:100F3000A5002508A20024308F314C2787312000DE
:100F4000931211128731F927873115303E00A50021
:100F50008F3122278B170B172E000F101914080042
:100F60002000A30023080F39A0000430A035890B0E
:100F7000B62F2308A1000430A136890BBC2F21080D
:100F80000F392004A2002208A30023083339A0004F
:100F90000230A035890BC92F2308A1000230A136E9
:100FA000890BCF2F210833392004A2002208A30087
:100FB00023085539A0000130A035890BDC2F2336DA
:100FC00055392004A1002108A300230808002000AF
:100FD000A10030001E17F0309B00200021083000D7
:100FE0009A001E141C082000A0002008A20022085D
:100FF000080055303D008F00AA308F008F01080097
:101E1A0023000F1808000D2F8F310D2723000C08FF
:101E2A000800F000700823008C00080055303000CC
:101E3A009F00AA309F009E14080055303D008F0075
:101E4A00AA308F0001308F0008000430210093006F
:101E5A00940195019A013F30980093170800640095
:101E6A00800101310130FE020030FF3B7F087E0411
:101E7A0003190034352FFE0012001E000130FE0245
:101E8A000030FF3B7F087E0403190034412F2000F5
:101E9A00A300231D522F2208542F200822042300B6
:101EAA008F0020002308210423009000080020004E
:101EBA00A401A501201C652F2208A4072308A53D1B
:101ECA000130A235A30D890B662F0130A136A00C73
:101EDA00890B6B2F20082104031D5F2F2508A10001
:101EEA002408A00008000934FF3403340134F7340D
:101EFA00F734F734FF34FF349E345A340034003454
:101F0A000034003400340034003400340034003427
:101F1A000034003400340034003400340034003417
:101F2A002000A10000308B1B0130A2008B1330006F
:101F3A001E171E15F0309B002000210830009A0061
:101F4A002000200830009C008F311B278F31300081
:101F5A009E18AC2F1E1120002208031908008B17A7
:101F6A000800200031083302A6003208343BA700DB
:101F7A0031082F02A0003208303BA1003508370291
:101F8A00A2003608383BA3008F315C278F3120002E
:101F9A002108A9002008A8008631DE26200026088C
:101FAA00350708002000200821009E009C013F30D0
:101FBA009D0013141318DF2F0C082000A200023012
:101FCA00A236890BE52F2208A300A40121000D08DF
:101FDA002000A500A6010630A535A60D890BF12F14
:101FEA0023082504A70024082604A8002708A0001F
:061FFA002808A100080008
:020000040001F9
:0A000E008C3FFE379F3FFF3FFF3F8E
:00000001FF
